:400000000010002011000000890300008903000080B500AF00F0BCF980B584B000AF021CFB1D1A70224A3B1C0B3312781A70214A3B1C0A3312781A701F4B1B68013BFB605A
:400040001AE01E4B1868391C0B31FA68131C5B009B18C31801331B780B70184B1868391C0A31FA68131C5B009B18C31802331B780B70FB68013BFB60FB68002B0ADB0F4B59
:400080001968FA68131C5B009B185B5CFA1D12789A42D6D90A4B3A1C0B3212781A60094B3A1C0A3212781A60BD4604B080BDC046CCF1FF0FCDF1FF0F74070000CC0000206F
:4000C0001CFF0B4020FF0B4080B500AF134B134A12688021C9020A431A601820FFF79CFF0F4B19221A60052000F02AFA0D4B0E4A1278D2B21A60052000F056FA074B074A93
:4001000011680A4A0A401A60094B802212061A60084B802212061A60BD4680BD00010B402CFF0B4028FF0B40E5F1FF0FFFFFFBFF08010B4004010B4080B582B000AF72B6ED
:40014000FB1D00221A7023E0FB1D1A78131C5B009B185B00354A9B183B603B681A78597809020A43997809040A43DB781B0613431A1C3B6819795B791B020B439BB2101CF3
:40018000191C00F089F9FB1DFA1D127801321A70FB1D1B78012BD7D9254A264B101C191C00F08AF9244B03221A60244B244A1A60244BEE2212021A60234B01221A60234BFC
:4001C00003221A60224B3F221A60224B224A1A60224BD82212011A60214B992212041A60204B802252021A601F4B992212041A601E4B1F4A1A601F4B992212041A601E4B20
:400200001D4A1278D2B202210A43D2B21A701A4B194A1278D2B206210A43D2B21A70FFF753FF00F089F9BD4602B080BD7C06000088060000A0060000000001400800014087
:40024000333333000C00014000000440080004400002044008020440DBB601000803044000500F4008500F4020500F4028500F4000008D0730500F4000700F4010B5064C8E
:400280002378002B07D10548002802D0044800E000BF0121217010BDE0000020000000005006000008B5084B002B03D00748084900E000BF07480168002903D0064A002A1D
:4002C00000D0904708BDC0460000000050060000E4000020C80000200000000080B582B000AF78607B68092B2DD87B689A00174BD3181B689F46002000F06AF923E0012077
:4003000000F066F91FE0022000F062F91BE0032000F05EF917E0042000F05AF913E0052000F056F90FE0062000F052F90BE0072000F04EF907E0082000F04AF903E0092001
:4003400000F046F9C046BD4602B080BD5406000080B500AF0B4B00221A600EE0094B1B68181CFFF7BBFFFA239B00181C00F0F8F8044B1B685A1C034B1A60024B1B68092B9D
:40038000ECDDE7E7FC00002080B500AFFEE7C04680B586B000AF254B7B61254B3B61234B7B61234B3B6132E03B691B68FB603B695B68BB603B699B683B6000237B600CE0B3
:4003C000FB681A68BB681A60BB680433BB60FB680433FB607B6804337B607A683B689A42EED13B69DB683B6000237B6008E0BB6800221A60BB680433BB607B6804337B606B
:400400007A683B689A42F2D13B6910333B617B695A1E9341DBB27A69013A7A61002BC3D100F0E6F8FFF794FFFEE7C046010000009C07000080B582B000AF00237B600FE0B7
:400440007B68032B04D8104B7A689200D35800E00E4B0F4A796889008B507B6801337B607B682F2BECD9FFF767FE0A4B00221A608023DB058022D205126801210A431A601F
:40048000BD4602B080BDC046000000008903000000000020C000002080B582B000AF786039607A683B68101C00211A1C00F0C6F8BD4602B080BDC04680B586B000AF786091
:4004C000396000233B6100237B612EE07B699B007A68D3181B68BB603B1C0F33BA681A70BB68FF229343BB6017E03B695B003A68D3181B781A1CBB68D3183A695200396843
:400500008A1852781A703B6901333B613B1C0F333A1C0F321278013A1A703B1C0F331B78002BE2D17B6901337B617B69052BCDD9BD4606B080BDC04680B500AFBD4680BDFA
:400540000230800804D0C0460138FDD1C046C0467047EFF3108072B6704780F31088704780B582B000AF786008E00C4B1B68181CFFF7E6FF7B680A4A9B187B607A68802301
:400580001B029A42F1D8074B1B687A685343181CFFF7D6FFBD4602B080BDC046DC0000200080FFFFD400002080B582B000AF021CBB1D1A80BB1D1B88044A12785343181C04
:4005C000FFF7BEFFBD4602B080BDC046D800002080B582B000AF021CFB1D1A70034BFA1D12781A70BD4602B080BDC04672000F4070B50E4B0E4D0024E81A85101E1CAC4294
:4006000004D0A100725890470134F8E700F0B4F80849094A0E1C541AA5100024AC4204D0A300F05880470134F8E770BD8407000084070000840700008C07000000B58218A7
:40064000031C934202D019700133FAE700BD000000000000F6020000FE020000060300000E030000160300001E030000260300002E030000360300003E03000000300F40BA
:40068000000400400F4000042E320F4021330F4002400F4003410F4009420F400C430F400137040C0549060207120C080E01110C1322154A1705180C1A011C031E04330C8F
:4006C0003570360F370F3E403F54580459045B045F0180338204841C8603880D8A308C2A91029304950A97049909A107B035B60FB70FBE41BF40D804D904DF0103A5040871
:4007000007010E0518021A801F402301266027102B80332537053E056C046E056FA580018240830187408A208F10A640AE40C0AFC2C0CA01CCC7CEC0E009E404EC0257088B
:40074000D4408308A708E6805310552058105E1066206702D407D605D8018210830185208B108E20961097229E20A520AC10E004E402000004000000F8B5C046F8BC08BCFE
:400780009E467047A502000035040000F8B5C046F8BC08BC9E4670477D020000B0070000C800002018000000200000000000000000000000C0F1FF0F00366E01C05D000021
:4007C000180000000000E02E0000000000000000000000000000000000000000000000000000000000000000000000000000000000000000000000000000000000000000D3
:4008000000000000000000000000000000000000000000000000000000000000000000000000000000000000000000000000000000000000000000000000000000000000B8
:400840000000000000000000000000000000000000000000000000000000000000000000000000000000000000000000000000000000000000000000000000000000000078
:400880000000000000000000000000000000000000000000000000000000000000000000000000000000000000000000000000000000000000000000000000000000000038
:4008C00000000000000000000000000000000000000000000000000000000000000000000000000000000000000000000000000000000000000000000000000000000000F8
:0200000490303A
:020000007A5F25
:0200000490402A
:200000000000000000000000000000000000000000000000000000000000000000000000E0
:0200000490501A
:0C000000000204C81193110104CA8BF225
:0200000490600A
:0100000001FE
:00000001FF