:40000000807f3030303030307e3030307e3030307e3030307e3030307e3030307e3030307e3030307e3030307e3030307e3030307e3030307e3030307e3030307e303030dd
:400040007e3030307e3030307e3030307e303030303030303030303030303030303030307e3030307e3030307e3030307e3030307e3030307e303030303030307e30303026
:40008000711062e38770ef62e33841fefb50804e62e33855f80055f900711062e00270ef62e338627105627505627905627d0562d10350004e62d30362d00062d50062d4e3
:4000c0000071c07c034970ef62d000500257820828530118750900284b5101800475090062e300082860d574a04b1875090008285301187509000828a01c530018750900dc
:4001000008283f014701ffb0065dd57460d5187a00bfeb8fc9187509000828530050003f014701ffb0085dd57460d550007a00bfef188faa18711070ef62e000711062e09a
:400140000043e20070ef62e2007c03ab8fff50107f303030303030303030303030303030303030303030303030303030303030303030303030303030303030303030303050
:40018000303030303030303030303030303030306a006b006200602966006100fc00fd0063056500e600e700a000a200a400a600a100a300a500a700d600e800e900a800ba
:4001c000a900b700bf00c700b000b100b200b333b433b500b600b855b900ba10bb33bc33bd00be00c0aac100c200c333c433c500c600ffa800a900aa00ab00ac0061006966
:40020000008b0060008a0089007509760077007a33620067336833630066006a00af007b00790064006500fd00dc009100950099009d009a0092009600d400d500d600d725
:4002400000d100a100d300a300d000a000d200a200ad00ae006b00e700e1ffe200dfffde02dd008500d800d900da00db00ec00ed00a700a400a500a6008200810071007268
:4002800000ff03c570ef62000171106200016201ff70ef6203fe620200711062020062030070ef62010062040071106204016205fe70ef6207fe620600711062060062070a
:4002c0000070ef62050062080071106208006209ff70ef620bff620a007110620a00620b0070ef620900620c007110620c00620d0070ef620f00620e007110620e00620fb0
:400300000070ef620d00621000711062100062110070ef621300621200711062120062130070ef621100621400711062140062150070ef62170062160071106216006217ed
:400340000070ef62150070ef7f7c03507c02847f1070ef500067500157907c036b500167500157f37c036b70ef207f380210084f56fc00d00456fc01182070ef62e30010f0
:40038000082839ffa01f4f48fc01a003711054fd18207509001008284f59fd610018207509008fd738fc703f71c07f80155d0062d0005301470101a0064104fe80044304ed
:4003c000018feb8fffff0030303030303030303030303030303030303030303030303030303030303030303030303030303030303030303030303030303030303030303045
:4004000030303030303030303030303030303030303030303030303030303030303030303030303030303030303030303030303030303030303030303030303030303030bc
:40044000303030303030303030303030303030303030303030303030303030303030303030303030303030303030303030303030303030303030303030303030303030307c
:40048000303030303030303030303030303030303030303030303030303030303030303030303030303030303030303030303030303030303030303030303030303030303c
:4004c00030303030303030303030303030303030303030303030303030303030303030303030303030303030303030303030303030303030303030303030303030303030fc
:020000040010ea
:020000040020da
:0200000077c6c1
:00000001ff
