:4000000000100020090400000104000001040000F8B51148114A1AE055689368D4689D4209D0002104E06E1877683668C0C30831A142F8D100E01B191469002103E0002548
:40004000002660C30831A142F9D1143201380028E2D100F0D3FCC04601000000F40A000080B584B000AF021CFB1D1A70224A3B1C0E3312781A70214A3B1C0F3312781A702B
:400080001F4B1B68013BBB601AE01E4B1868BA68391C0E31131C5B009B181B1801331B780B70184B1868BA68391C0F31131C5B009B181B1802331B780B70BB68013BBB60EA
:4000C000BB68002B0ADB0F4B1968BA68131C5B009B185B5CFA1D12789A42D6D90A4B3A1C0E3212781A60094B3A1C0F3212781A60BD4604B080BDC046CCF1FF0FCDF1FF0F41
:40010000CC0A0000DC0000201CFF0B4020FF0B4080B500AF1A4A1A4B19688023DB020B4313601820FFF79CFF164B19221A60052000F00EFC144B154A1278D2B21A60052045
:4001400000F0BCF90E4B0E4A1168114A0A401A60104B10221A60104B10221A600F4B10221A600F4A80231B0613600E4A80231B0613600D4A80231B061360BD4680BDC0468A
:4001800000010B402CFF0B4028FF0B40E5F1FF0FFFFFFBFF20020240240202402802024008010B4004010B400000024080B582B000AF72B6FB1C00221A7024E0FB1C1A7863
:4001C000131C5B009B185B001A1C3B4BD3187B607B681A78597809020A43997809040A43DB781B0613431A1C7B6819795B791B020B439BB2101C191C00F054FBFB1CFA1C0E
:40020000127801321A70FB1C1B78012BD6D92B4A2B4B101C191C00F055FB2A4ACC239B011360294AC0239B041360284AEE231B021360274B0C221A60264AD8231B01136065
:40024000254B40221A60254AC0235B031360244AD8231B011360234A99231B041360224AD0231B041360214A99231B041360204A99231B0413601F4B10221A601E4B102249
:400280001A601E4B10221A601D4B1D4A1278D1B202220A43D2B21A70194B194A1278D1B206220A43D2B21A70FFF732FF00F04AFBBD4602B080BDC046840A0000900A000081
:4002C000A00A000000000140040001400C000140000004400800044000010440080104400803044000500F4008500F4010500F4030500F402001054060010540A00105405A
:4003000000700F4000B5034B1A78002A01D10120187000BDE000002008B504480368002B03D0034B002B00D0984708BDC80000200000000080B582B000AF00F013F8BB1DD7
:40034000BA1D1288064952181A80BB1D1B88181C0021002200F036F80A2000F08BF8EEE78F02000080B500AF00F004F900F0A2F900F040FABD4680BD80B582B000AF0A1CA4
:40038000FB1D011C19703B1D1A80FB1D1B78022B09D0032B0DD0012B10D13B1D1B88181C00F008F90AE03B1D1B88181C00F0A2F904E03B1D1B88181C00F03CFABD4602B012
:4003C00080BDC04680B582B000AFBB1D18803B1D1980BB1C1A80BB1D1B880120191CFFF7CBFF3B1D1B880220191CFFF7C5FFBB1C1B880320191CFFF7BFFFBD4602B080BDBD
:4004000080B500AFFEE7C046014B9D46014B1847001000201100000080B582B000AF00237B600FE079687B68032B04D87A680D4B9200D35800E00C4B0C4A89008B507B6836
:4004400001337B607B682F2BECD9FFF7AFFE084B00221A608023DB0501221A60BD4602B080BDC046000000000104000000000020C000002080B582B000AF786008E00C4B8F
:400480001B68181C00F064FA7B680A4A9B187B607A6880231B029A42F1D8074B1B687A685343181C00F054FABD4602B080BDC046D80000200080FFFFD000002080B582B0A7
:4004C00000AF021CBB1D1A80BB1D1B88044A12785343181C00F03CFABD4602B080BDC046D400002080B500AF0F4A8223DB0413600D4B0D4A12681A600B4B0B4A12681A6018
:400500000A4B0C221A60012000F080F8084B181C00F042F8064B181C00F04CF8054B31221A60BD4680BDC04680010540A4010540FFFF0000A801054080B582B000AF00F0C6
:4005400010FA031C1A1CFB1D1A70094B084A116804220A431A60FB1D1B78181C00F005FA0420182100F034F8BD4602B080BDC0460000054080B500AF064B1B78002B04D122
:40058000FFF7B0FF034B01221A70FFF7D5FFBD4680BDC046E100002080B582B000AF7860034B7A681204120C1A60BD4602B080BD9401054080B582B000AF7860034B7A68D4
:4005C0001204120C1A60BD4602B080BD8C01054080B584B000AF7860396000F0C2F9031C1A1C3B1C0F331A70074B3A687968081C9040021C1A603B1C0F331B78181C00F02C
:40060000B4F9BD4604B080BD0800054080B582B000AF7860024B7A681A60BD4602B080BDB801054080B500AF0F4A8223DB0413600D4B0D4A12681A600B4B0B4A12681A60CF
:400640000A4B0C221A60012000F080F8084B181C00F042F8064B181C00F04CF8054B31221A60BD4680BDC0464001054064010540FFFF00006801054080B582B000AF00F045
:4006800070F9031C1A1CFB1D1A70094B084A116802220A431A60FB1D1B78181C00F065F90220182100F034F8BD4602B080BDC0460000054080B500AF064B1B78002B04D127
:4006C000FFF7B0FF034B01221A70FFF7D5FFBD4680BDC046E200002080B582B000AF7860034B7A681204120C1A60BD4602B080BD5401054080B582B000AF7860034B7A68D2
:400700001204120C1A60BD4602B080BD4C01054080B584B000AF7860396000F022F9031C1A1C3B1C0F331A70074B3A687968081C9040021C1A603B1C0F331B78181C00F0CA
:4007400014F9BD4604B080BD0800054080B582B000AF7860024B7A681A60BD4602B080BD7801054080B500AF0F4A8223DB0413600D4B0D4A12681A600B4B0B4A12681A606E
:400780000A4B0C221A60012000F080F8084B181C00F042F8064B181C00F04CF8054B31221A60BD4680BDC0460001054024010540FFFF00002801054080B582B000AF00F0C4
:4007C000D0F8031C1A1CFB1D1A70094B084A116801220A431A60FB1D1B78181C00F0C5F80120182100F034F8BD4602B080BDC0460000054080B500AF064B1B78002B04D12A
:40080000FFF7B0FF034B01221A70FFF7D5FFBD4680BDC046E300002080B582B000AF7860034B7A681204120C1A60BD4602B080BD1401054080B582B000AF7860034B7A68CF
:400840001204120C1A60BD4602B080BD0C01054080B584B000AF7860396000F082F8031C1A1C3B1C0F331A70074B3A687968081C9040021C1A603B1C0F331B78181C00F06A
:4008800074F8BD4604B080BD0800054080B582B000AF7860024B7A681A60BD4602B080BD3801054080B582B000AF786039607A683B68101C00211A1C00F05AF8BD4602B0FE
:4008C00080BDC04680B586B000AF786039600023FB600023BB602EE0BB689A007B68D3181B683B613B1C17333A691A703B69FF2293433B6117E0FB685A003B68D3181B78DC
:400900001A1C3B69D318FA6851003A688A1852781A70FB680133FB603B1C17333A1C17321278013A1A703B1C17331B78002BE2D1BB680133BB60BB68032BCDD9BD4606B0F2
:4009400080BDC04680B500AFBD4680BD000000000230800804D0C0460138FDD1C046C0467047EFF3108072B6704780F31088704730B5C9B2032A08D8002A05D0031C1218EA
:40098000197001339342FBD130BD8418031C032201E0197001331342FBD10A02521815045219E51A11E01A605A609A60DA601A615A619A61DA611A625A629A62DA621A63A2
:4009C0005A639A63DA63403D40333F2DEBDCE51A05E01A605A609A60DA60103D10330F2DF7DCE51A01E004C3043D032DFBDC01E0197001339C42FBD8C6E7C04608B500F054
:400A00001DF80A4B002B01D1002000E01868084B002B01D1002100E019680022FFF78AFC044B002B01D000E000BFFEE7000000000000000000000000FEE7000070B50D4D2C
:400A40000D4E761BB610002E05D0002408CD01349847A642FAD800F03BF8084D084E761BB610002E05D0002408CD01349847A642FAD870BDDC0A0000DC0A0000DC0A00002C
:400A8000E40A000000300F40000400400F40000401330F4004400F4008410F4008430F40E62956805C10D440D6206302801087018A8094109E80D640E69018101A081C80D4
:400AC000801086048840C60EE604000004000000F8B5C046F8BC08BC9E4670471903000019040000F8B5C046F8BC08BC9E4670470503000000000000080B0000C80000208A
:400B000018000000080000000000000000366E01C05D0000180000000000E02EC0F1FF0F0000000000000000000000000000000000000000000000000000000000000000EE
:400B40000000000000000000000000000000000000000000000000000000000000000000000000000000000000000000000000000000000000000000000000000000000075
:400B80000000000000000000000000000000000000000000000000000000000000000000000000000000000000000000000000000000000000000000000000000000000035
:400BC00000000000000000000000000000000000000000000000000000000000000000000000000000000000000000000000000000000000000000000000000000000000F5
:400C000000000000000000000000000000000000000000000000000000000000000000000000000000000000000000000000000000000000000000000000000000000000B4
:0200000490303A
:02000000A180DD
:0200000490501A
:0C000000000204C81193110104CBB313DB
:0200000490600A
:0100000001FE
:0200000490402A
:4000000000000000000000000000000000000000000000000000000000000000000000000000000000000000000000000000000000000000000000000000000000000000C0
:00000001FF
