:400000000010002011000000A5030000A503000080B500AF00F0CAF980B584B000AF021CFB1D1A70224A3B1C0B3312781A70214A3B1C0A3312781A701F4B1B68013BFB6014
:400040001AE01E4B1868391C0B31FA68131C5B009B18C31801331B780B70184B1868391C0A31FA68131C5B009B18C31802331B780B70FB68013BFB60FB68002B0ADB0F4B59
:400080001968FA68131C5B009B185B5CFA1D12789A42D6D90A4B3A1C0B3212781A60094B3A1C0A3212781A60BD4604B080BDC046CCF1FF0FCDF1FF0F4C0B0000CC00002093
:4000C0001CFF0B4020FF0B4080B500AF194B194A12688021C9020A431A601820FFF79CFF154B19221A60052000F046FA134B144A1278D2B21A60052000F072FA0D4B0D4A31
:400100001168104A0A401A600F4B10221A600F4B20221A600E4B802212061A600D4B802212061A600C4B0D4A1A600D4B0D4A1A60BD4680BD00010B402CFF0B4028FF0B402E
:40014000E5F1FF0FFFFFFBFF340202403C02024008010B4004010B400000024001000080400002403F9C008080B582B000AF72B6FB1D00221A7023E0FB1D1A78131C5B002E
:400180009B185B003C4A9B183B603B681A78597809020A43997809040A43DB781B0613431A1C3B6819795B791B020B439BB2101C191C00F07FF9FB1DFA1D127801321A7094
:4001C000FB1D1B78012BD7D92C4A2D4B101C191C00F080F92B4BA02212011A802A4B01221A702A4BC02292011A60294BC02292041A60284BEE2212021A60274B88221A6048
:40020000264B274A1A60274B40221A60264BC02252031A60254BD82212011A60244B254A1A60254B802212061A60244B8022D2031A60234B992212041A60224B8022520580
:400240001A60214B992212041A60204B1F4A1278D2B202210A43D2B21A701C4B1B4A1278D2B206210A43D2B21A70FFF72DFF00F071F9BD4602B080BDB0090000BC090000A5
:40028000DC09000000600F4002600F4000000140040001400C0001400000044008000440000C400000010440080104400803044000500F400400990004500F4008500F40E3
:4002C00010500F4018500F4030500F4000700F4010B5064C2378002B07D10548002802D0044800E000BF0121217010BDE000002000000000AC09000008B5084B002B03D0E0
:400300000748084900E000BF07480168002903D0064A002A00D0904708BDC04600000000AC090000E4000020C80000200000000080B500AF00F068F900F030FA00F00EF9F7
:4003400000F0F6FA164B00221A600DE0144B1B68DBB2181C00F0E8F9052000F01DF9104B1B685A1C0E4B1A600D4B1B68FE2BEDDD0B4BFF221A600DE0094B1B68DBB2181CA9
:4003800000F0D2F9052000F007F9054B1B685A1E034B1A60024B1B68002BEDDCD2E7C046FC00002080B500AFFEE7C04680B586B000AF254B7B61254B3B61234B7B61234BC2
:4003C0003B6132E03B691B68FB603B695B68BB603B699B683B6000237B600CE0FB681A68BB681A60BB680433BB60FB680433FB607B6804337B607A683B689A42EED13B697A
:40040000DB683B6000237B6008E0BB6800221A60BB680433BB607B6804337B607A683B689A42F2D13B6910333B617B695A1E9341DBB27A69013A7A61002BC3D100F086FA43
:40044000FFF776FFFEE7C04601000000740B000080B582B000AF00237B600FE07B68032B04D8104B7A689200D35800E00E4B0F4A796889008B507B6801337B607B682F2BB6
:40048000ECD9FFF771FE0A4B00221A608023DB058022D205126801210A431A60BD4602B080BDC04600000000A503000000000020C000002080B582B000AF786039607A68B9
:4004C0003B68101C00211A1C00F066FABD4602B080BDC04680B586B000AF7860396000233B6100237B612EE07B699B007A68D3181B68BB603B1C0F33BA681A70BB68FF22C4
:400500009343BB6017E03B695B003A68D3181B781A1CBB68D3183A69520039688A1852781A703B6901333B613B1C0F333A1C0F321278013A1A703B1C0F331B78002BE2D1E7
:400540007B6901337B617B69072BCDD9BD4606B080BDC04680B500AFBD4680BD80B500AF044B044A1268802109060A431A60BD4680BDC046000002400230800804D0C0461D
:400580000138FDD1C046C0467047EFF3108072B6704780F31088704780B582B000AF786008E00C4B1B68181CFFF7E6FF7B680A4A9B187B607A6880231B029A42F1D8074B41
:4005C0001B687A685343181CFFF7D6FFBD4602B080BDC046DC0000200080FFFFD400002080B582B000AF021CBB1D1A80BB1D1B88044A12785343181CFFF7BEFFBD4602B070
:4006000080BDC046D800002080B500AF064B1B78002B04D100F00AF8034B01221A7000F045F8BD4680BDC0460001002090B583B000AF1C4B1B78DAB2FB1D3F218A431A70BA
:40064000184BFA1D12780A210A43D2B21A70164B154A1278D2B201210A43D2B21A70FF2000F034F8FF2000F04FF87F2000F05CF8002000F069F8BC1DFFF787FF031C2370B9
:40068000094B094A1278D2B210210A43D2B21A70BB1D1B78181CFFF77CFF00F027F8BD4603B090BD71000F4091000F4080B500AF054B054A1278D2B2802149420A43D2B2A9
:4006C0001A70BD4680BDC04671000F4080B582B000AF021CFB1D1A70034BFA1D12781A70BD4602B080BDC04601000F4080B500AF01E000F049F800F037F8031C1A1C102336
:400700001340F6D1BD4680BD80B582B000AF021CFB1D1A70034BFA1D12781A70BD4602B080BDC04641000F4080B582B000AF021CFB1D1A70034BFA1D12781A70BD4602B084
:4007400080BDC04621000F4080B582B000AF021CFB1D1A70034BFA1D12781A70BD4602B080BDC04681000F4080B582B000AF054AFB1D12781A70FB1D1B78181CBD4602B08A
:4007800080BDC04661000F4080B500AF024B1B78DBB2181CBD4680BD51000F4080B500AF064B1B78002B04D100F00AF8034B01221A7000F045F8BD4680BDC0460101002097
:4007C00090B583B000AF1C4B1B78DAB2FB1D3F218A431A70184BFA1D127809210A43D2B21A70164B154A1278D2B201210A43D2B21A70FF2000F034F8FF2000F04FF87F2079
:4008000000F05CF8002000F069F8BC1DFFF7BDFE031C2370094B094A1278D2B210210A43D2B21A70BB1D1B78181CFFF7B2FE00F027F8BD4603B090BD72000F4092000F408D
:4008400080B500AF054B054A1278D2B2802149420A43D2B21A70BD4680BDC04672000F4080B582B000AF021CFB1D1A70034BFA1D12781A70BD4602B080BDC04602000F40C1
:4008800080B500AF01E000F049F800F037F8031C1A1C10231340F6D1BD4680BD80B582B000AF021CFB1D1A70034BFA1D12781A70BD4602B080BDC04642000F4080B582B002
:4008C00000AF021CFB1D1A70034BFA1D12781A70BD4602B080BDC04622000F4080B582B000AF021CFB1D1A70034BFA1D12781A70BD4602B080BDC04682000F4080B582B028
:4009000000AF054AFB1D12781A70FB1D1B78181CBD4602B080BDC04662000F4080B500AF024B1B78DBB2181CBD4680BD52000F4080B500AF044B044A1268802109060A43A7
:400940001A60BD4680BDC0464000024070B50E4B0E4D0024E81A85101E1CAC4204D0A100725890470134F8E700F0F2F80849094A0E1C541AA5100024AC4204D0A300F058B3
:4009800080470134F8E770BD5C0B00005C0B00005C0B0000640B000000B58218031C934202D019700133FAE700BD00000000000000300F40000400400F40000402000F40B4
:4009C00038300F4024310F4029320F4024330F4006400F4005410F4002600F40812D822D388058045C015F0181029101930294189C049D019E12A404A609AD04AE23B0185E
:400A0000B102B204B301B420B504B603B808B90ABBC0BF15C020C105C5D0C602C710C82EC9FFCAFFCBFFCDA0CF04D018D280D425D804D90BDA04DB04DC91DD11DF01E0400B
:400A4000E2C0E440E540E6C0E8C0EAC0ECC0EEC00E200F021620174019801D601E602444260827012D80354037013C01400C45204F81562057415E405F09640877407E80CE
:400A800082808F48C2A0C4A0CA10CC90CE80D020D210D6D0D820DE8002030D0118082A0D3008320234043501360139023F104060410245D046204701481A49FF4AFF4BFF5D
:400AC0004DA04F04501852805425580459045A045B045C335D335F01604062C06440654066C068C06AC06CC06EC006800E0416041C111E4424402708340437083C4044081E
:400B000045204D104F01552056045C085E405F01640476807C107D109401B208B440C010C240C440CE10D020D220D6D0D820EA40EE800F0857808304C280D440E4205F08B6
:400B40009B08B308B780D680100A110104000000F8B5C046F8BC08BC9E467047F902000051040000F8B5C046F8BC08BC9E467047D1020000880B0000C80000201800000018
:400B8000280000000000000000000000C0F1FF0F00366E01C05D0000180000000000E02E000000000000000000000000000000000000000000000000000000000000000066
:400BC00000000000000000000000000000000000000000000000000000000000000000000000000000000000000000000000000000000000000000000000000000000000F5
:400C000000000000000000000000000000000000000000000000000000000000000000000000000000000000000000000000000000000000000000000000000000000000B4
:400C40000000000000000000000000000000000000000000000000000000000000000000000000000000000000000000000000000000000000000000000000000000000074
:400C80000000000000000000000000000000000000000000000000000000000000000000000000000000000000000000000000000000000000000000000000000000000034
:0200000490303A
:02000000FACF35
:0200000490402A
:200000000000000000000000000000000000000000000000000000000000000000000000E0
:0200000490501A
:0C000000000204C81193110104CC0C6232
:0200000490600A
:0100000001FE
:00000001FF