:1000000000100020B5020000AD020000AD020000AB
:10001000F8B51148114A1AE055689368D4689D42B2
:1000200009D0002104E06E1877683668C0C3083133
:10003000A142F8D100E01B191469002103E000255A
:10004000002660C30831A142F9D1143201380028DA
:10005000E2D100F02FFAC046010000007005000058
:1000600080B584B000AF021CFB1D1A70224A3B1CF5
:100070000E3312781A70214A3B1C0F3312781A7013
:100080001F4B1B68013BBB601AE01E4B1868BA6827
:10009000391C0E31131C5B009B181B1801331B7895
:1000A0000B70184B1868BA68391C0F31131C5B00B1
:1000B0009B181B1802331B780B70BB68013BBB609D
:1000C000BB68002B0ADB0F4B1968BA68131C5B0076
:1000D0009B185B5CFA1D12789A42D6D90A4B3A1CDF
:1000E0000E3212781A60094B3A1C0F3212781A60DD
:1000F000BD4604B080BDC046CCF1FF0FCDF1FF0F6F
:1001000048050000DC0000201CFF0B4020FF0B40D6
:1001100080B500AF134A134B19688023DB020B43F1
:1001200013601820FFF79CFF0F4B19221A6005205F
:1001300000F06AF90D4B0E4A1278D2B21A6005200F
:1001400000F038F9074B074A11680A4A0A401A605A
:10015000094A80231B061360084A80231B0613608C
:10016000BD4680BD00010B402CFF0B4028FF0B401B
:10017000E5F1FF0FFFFFFBFF08010B4004010B40FF
:1001800080B582B000AF72B6FB1C00221A7024E06A
:10019000FB1C1A78131C5B009B185B001A1C264B77
:1001A000D3187B607B681A78597809020A439978DA
:1001B00009040A43DB781B0613431A1C7B68197970
:1001C0005B791B020B439BB2101C191C00F006F953
:1001D000FB1CFA1C127801321A70FB1C1B78012BD5
:1001E000D6D9164AEE231B021360154AC0235B03BF
:1001F0001360144AD8231B011360134A99231B046C
:100200001360124A99231B041360114B104A127891
:10021000D1B202220A43D2B21A700D4B0C4A1278A4
:10022000D1B206220A43D2B21A70FFF771FF00F072
:10023000E5F8BD4602B080BD3C0500000C00014061
:10024000080104400803044010500F4030500F4094
:1002500000700F4000B5034B1A78002A01D101202D
:10026000187000BDE000002008B504480368002BAA
:1002700003D0034B002B00D0984708BDC8000020D6
:100280000000000080B500AFFF2000F049F8FA231D
:100290005B00181C00F06AF8002000F041F8FA2317
:1002A0005B00181C00F062F8EEE7C04680B500AFB6
:1002B000FEE7C046014B9D46014B18470010002049
:1002C0001100000080B582B000AF00237B600FE01A
:1002D00079687B68032B04D87A680D4B9200D35859
:1002E00000E00C4B0C4A89008B507B6801337B602B
:1002F0007B682F2BECD9FFF743FF084B00221A60D5
:100300008023DB0501221A60BD4602B080BDC046D5
:1003100000000000AD02000000000020C00000202E
:1003200080B584B000AF021CFB1D1A700E4B1B6819
:10033000DAB23B1C0F3340218A431A70FB1D1B7835
:100340009B01DBB2402213403A1C0F32391C0F31A3
:1003500009780B431370044B3A1C0F3212781A6061
:10036000BD4604B080BDC0460001044080B582B0E7
:1003700000AF786008E00C4B1B68181C00F044F8D4
:100380007B680A4A9B187B607A6880231B029A422A
:10039000F1D8074B1B687A685343181C00F034F8F7
:1003A000BD4602B080BDC046D80000200080FFFFDF
:1003B000D000002080B582B000AF021CBB1D1A80A7
:1003C000BB1D1B88044A12785343181C00F01CF80C
:1003D000BD4602B080BDC046D400002080B582B0CA
:1003E00000AF786039607A683B68101C00211A1CE5
:1003F00000F01AF8BD4602B080BDC04680B500AF1F
:10040000BD4680BD000000000230800804D0C04618
:100410000138FDD1C046C0467047EFF3108072B678
:10042000704780F31088704730B5C9B2032A08D8E6
:10043000002A05D0031C1218197001339342FBD116
:1004400030BD8418031C032201E0197001331342EC
:10045000FBD10A02521815045219E51A11E01A606C
:100460005A609A60DA601A615A619A61DA611A62B6
:100470005A629A62DA621A635A639A63DA63403D97
:1004800040333F2DEBDCE51A05E01A605A609A60B4
:10049000DA60103D10330F2DF7DCE51A01E004C3DC
:1004A000043D032DFBDC01E0197001339C42FBD8B5
:1004B000C6E7C04608B500F01DF80A4B002B01D175
:1004C000002000E01868084B002B01D1002100E05B
:1004D00019680022FFF7D6FE044B002B01D000E084
:1004E00000BFFEE700000000000000000000000068
:1004F000FEE7000070B50D4D0D4E761BB610002EB8
:1005000005D0002408CD01349847A642FAD800F05F
:100510001DF8084D084E761BB610002E05D000249D
:1005200008CD01349847A642FAD870BD580500009E
:0C053000580500005805000060050000A0
:10053C0000300F40000400400F4000040400000095
:10054C00F8B5C046F8BC08BC9E467047690200006E
:10055C00C5020000F8B5C046F8BC08BC9E46704702
:10056C00550200000000000088050000C8000020B3
:0C057C0018000000080000000000000053
:100588000000000000366E01C05D00001800000089
:080598000000E02EC0F1FF0F8E
:04000003000002B542
:00000001FF
