:400000000040002011000000490400004904000080B500AF00F01CFA80B584B000AF021CFB1D1A70204A3B1C0B3312781A701F4A3B1C0A3312781A700423013BFB6018E019
:400040001B4B1868391C0B31FA68131C5B009B18C3185B780B70164B1868391C0A31FA68131C5B009B18C3189B780B70FB68013BFB60FB68002B0ADB0D4B1968FA68131CF1
:400080005B009B185B5CFA1D12789A42D8D9094B3A1C0B3212781A60074B3A1C0A3212781A60BD4604B080BDCCF1FF0FCDF1FF0FCC0000201CFF0B4020FF0B4080B500AF4F
:4000C000254B12221A601820FFF7A6FF234B19221A60052000F0D4FA214B224A1278D2B21A60052000F03CFC00F062FB012000F06FFB1D4B1D4A1A601D4B1E4A1A601E4B98
:400100001D4A126808218A431A60FA23DB00181C00F008FB194B181C00F022FC184BE022D2001A60174B184A1A60184B802252011A60144B164A1A60164B822212061A6018
:40014000154B40221A60154B41221A60024B11221A60BD4680BDC046300010402CFF0B4028FF0B40E5F1FF0F04010B40060000807C002E402D3E00006CF02E40DC050000A4
:40018000000301400000014040FF00800403014041FF008008010B40180101400401014080B582B000AF72B6464B00221A60FB1D00221A7023E0FB1D1A78131C5B009B18E6
:4001C0005B00414A9B183B603B681A78597809020A43997809040A43DB781B0613431A1C3B6819795B791B020B439BB2101C191C00F0B2F9FB1D1A78FB1D01321A70FB1DAE
:400200001B78012BD7D9314A314B101C191C00F0B3F9304B304A1A60304B314A1A60314B314A1A60314B20221A60314B314A1A60314B20221A60314BE0221A60304BDB22BA
:40024000D2031A602F4B2F221A602F4B2F4A1A602F4B20221A602F4B992212041A602E4B992212041A602D4BD02212061A602C4B992212041A602B4BD82292031A602A4B0C
:40028000294A1278D2B202210A43D2B21A70274B264A1278D2B20C218A43D2B204210A43D2B21A70204B204A1278D2B216210A43D2B21A70FFF702FF00F09EF9BD4602B0A9
:4002C00080BDC0466CF02E409C0D0000A80D0000B80D000000000240000099EE0001024000003033000302403333000000000440080004400010DB00180004400001044098
:40030000080104400003044008030440DB0600001803044000500F4010500F4018500F4030500F4038500F4000700F4001700F4010B5064C2378002B07D1054B002B02D06E
:40034000044800E000BF0123237010BDE0000020000000006C0D000008B5084B002B03D00748084900E000BF07480368002B03D0064B002B00D0984708BDC046000000009A
:400380006C0D0000E4000020C80000200000000080B582B000AF78607B68092B2DD87B689A00174BD3181B689F46092000F0ECFA23E0082000F0E8FA1FE0072000F0E4FAAC
:4003C0001BE0062000F0E0FA17E0052000F0DCFA13E0042000F0D8FA0FE0032000F0D4FA0BE0022000F0D0FA07E0012000F0CCFA03E0002000F0C8FAC046BD4602B080BD55
:40040000700D000080B582B000AF62B600F0CCFA00F0CCFB022000F0D7FB002000F0F8FB031C1A1CBB1D1A80BB1D1B88181CDC2100F01EFC031C9BB2181CFFF7A9FF3220B0
:4004400000F06AFAE9E7C04680B500AFFEE7C04680B586B000AF224B7B61224B3B61204B7B6135E03B691B68FB603B695B68BB603B699B683B6000237B600CE0FB681A68A6
:40048000BB681A60BB680433BB60FB680433FB607B6804337B607A683B689A42EED13B69DB683B6000237B6008E0BB6800221A60BB680433BB607B6804337B607A683B680A
:4004C0009A42F2D13B6910333B617B69013B7B617B69002BC6D100F01BFCFFF793FFFEE701000000B40E000080B582B000AF154B144A126801218A431A6000237B600FE05D
:400500007B68032B04D8104B7A689200D35800E00E4B0F4A796889008B507B6801337B607B682F2BECD9FFF73BFE0A4B00221A60044B044A126801210A431A60BD4602B034
:4005400080BDC04600001040000000004904000000000020C000002080B582B000AF786039607A683B68101C00211A1C00F0F6FBBD4602B080BDC04680B586B000AF786041
:40058000396000233B6100237B612EE07B699B007A68D3181B68BB603B1C0F33BA681A70BB68FF229343BB6017E03B695B003A68D3181B781A1CBB68D3183A695200396882
:4005C0008A1852781A703B6901333B613B1C0F331A783B1C0F33013A1A703B1C0F331B78002BE2D17B6901337B617B69032BCDD9BD4606B080BDC04680B500AF0A4B0322F8
:400600001A600A4B03221A60094B802212051A60084B20221A60084B00221A60012000F00DF8BD4680BDC046300030403000314000003A4000033A40000E3F4080B584B03D
:4006400000AF021CFB1D1A700B4B1B68FB60FB1D1B78002B05D0FB68802212061343FB6003E0FB685B005B08FB60034BFA681A60BD4604B080BDC04680033A4000000000DE
:400680000230800803D00138FDD1C046C046C0467047EFF3108072B6704780F31088704780B500AF0B4B0B4A126801218A431A60094B094A126830218A4310210A431A6021
:4006C000054B054A126807218A4301210A431A60BD4680BD00F02E4000FF2E4080B500AF0E4B0E4A126802218A431A600C4B0C4A126807218A4302210A431A60084B084AD4
:40070000126830218A4320210A431A60034B034A126801210A431A60BD4680BD00F02E4000FF2E4080B584B000AF78600023FB60154B154A126801210A431A60134B144AC4
:400740001A60144B134A1268802109020A431A607B68002B13D01023FB600DE0012000F0FFF800F019F8031C002B02D00023FB6005E07B68013B7B607B68002BEED1FB6838
:40078000181CBD4604B080BD60F02E4078002E400220000010002E4080B500AF034B1A6801231340181CBD4680BDC0460C002E4080B500AFFFF774FF044B044A12688021A9
:4007C00009060A431A60BD4680BDC04600F02E4080B584B000AF78600C4B1A6801231340FB607B68002B02D0012B03D005E0FFF757FF06E0FFF772FF03E0002000F082F81A
:40080000C046FB68181CBD4604B080BD00F02E4080B584B000AF021C3960FB1D1A7080239B05FB60FB1D1B781F2B02D9002000F069F8FB1D1B7810339B00FA68D3181B6820
:40084000BB60FB1D1B7810339B00FA68D3183A681A60BB68181CBD4604B080BD90B587B000AF0A1CFB1D011C1970BB1D1A70BB1D1B78032B02D9002000F044F8FB1D1B7844
:400880001F2B02D9002000F03DF8FB1D1A7803231340DB0006337B613C1C1334FFF7F9FE031C2370FB1D1B789B08DBB29B0014495B181B68FB607B690322111C99400B1C23
:4008C000DA43FB681340FB60BB1D1A787B69111C99400B1CFA681343FB60FB1D1B789B08DBB29B00064A9B18FA681A603B1C13331B78181CFFF7D1FEBD4607B090BDC046B1
:4009000000E400E080B582B000AF021CFB1D1A7001BEBD4602B080BD80B582B000AF786008E00C4B1B68181CFFF7AAFE7B680A4A9B187B607A6880231B029A42F1D8074B8C
:400940001B687A685343181CFFF79AFEBD4602B080BDC046DC0000200080FFFFD400002080B582B000AF021CBB1D1A80BB1D1B88044A12785343181CFFF782FEBD4602B066
:4009800080BDC046D800002080B582B000AF021CFB1D1A70034BFA1D12781A70BD4602B080BDC04673000F4080B500AF064B1B78002B04D100F00AF8034B01221A7000F04E
:4009C000D9F8BD4680BDC046FC00002090B585B000AF0F200321FFF741FF4F4B0F20191CFFF716FF4D4B01221A604D4B4D4A1A604D4B4E4A1A604E4B4E4A1A604E4B00221B
:400A00001A604E4B4E4A1A604E4B4D4A1A604E4B4D4A1268802149020A431A604B4B00221A604B4B00221A604A4B01221A604A4B1B687B607A68494B13407B607B688022D8
:400A4000920513437B607B68012293437B60424B7A681A600023FB6058E00022DC239B0113407B60FB689B003D4A9B187A681A600022012313400AD0344B344A1168FA688E
:400A80000120041C9440221C92B20A431A600022022313400AD02E4B2D4A1168FA680120041C9440221C92B20A431A60002280239B00134003D080235B00BB6002E0802317
:400AC0005B01BB60002280235B00134005D1254BFA6852000021D15204E0224BFA6852000021D152BB68204A53438022D2009B18002B01DA1D4C1B19DB129BB219B21C4B2C
:400B0000FA689200D150FB680133FB60FB68002BA3D0BD4605B090BD550C000020003A4000003A40C002005104003A408C00008018003A400000FF071C003A4010003A40DE
:400B40000400040014003A4000033A4028023A4038023A4018023A4030003A40FFFFFFDF80003A400401002010270000FF0700000001002080B500AF0A4B1B68002B0EDBA3
:400B8000C046094B1B68002BFBDB064B054A1268802109060A431A600A20FFF7E1FEBD4680BDC04600003A4008023A4080B500AF044B044A1268802149020A431A60BD46D2
:400BC00080BDC04604003A4080B584B000AF78600023FB607A680323134011D00B4B1A6801231340FB60FB68002B03D17A6802231340F3D1FB68002B02D0044B01221A6014
:400C0000FB68181CBD4604B080BDC04610023A4080B584B000AF78607B68002B02D00020FFF770FE7B68002B08D17B689B00084A9B181B681B041B0CFB6001E00023FB6056
:400C4000FB689BB21BB2181CBD4604B080BDC04680013A4080B582B000AF044B1B687B60024B7A681A60BD4602B080BD10023A40002934D00123002210B488422CD30124BF
:400C80002407A14204D2814202D209011B01F8E7E400A14204D2814202D249005B00F8E7884201D3401A1A434C08A04202D3001B5C0822438C08A04202D3001B9C0822434A
:400CC000CC08A04202D3001BDC082243002803D01B0901D00909E3E7101C10BC7047002801D00020C04307B4024802A14018029003BDC046190000000029F0D003B5FFF766
:400D0000B9FF0EBC4243891A1847C0467047C04670B50E4B0E4D0024ED1AAD101E1CAC4204D0A300F35898470134F8E700F0B0F8084B094D0024ED1AAD101E1CAC4204D024
:400D4000A300F35898470134F8E770BD9C0E00009C0E00009C0E0000A40E0000031C8218934202D019700133FAE7704700000000AA030000B2030000BA030000C20300001C
:400D8000CA030000D2030000DA030000E2030000EA030000F20300000400000000300F40000400400F4000042F320F4027330F4009410F400C430F4001030304050C07011F
:400DC000090C0B020C020E2411081301140916101C37240A26043038310F320F3E053F01580459045F0185098702890A8B058C2A910C93029C339D079E04A41CA603A80D9C
:400E0000AA30B035B20FB30CB70FBE05BF44D804D904DB04DF01030107010A010D040E0110081104170819021A201F0621082301274030803301370139143D043E116888D5
:400E4000691C6A116B09821083018704890A8B028F40C081C2A1C426CC89CEE6E001E210E404E6805E016302648087018A018C80D6C0D880E6105202538054405C408040F4
:400E8000820288408B80D407D604E001E4040000F8B5C046F8BC08BC9E46704759030000E9040000F8B5C046F8BC08BC9E46704731030000C80E0000C8000020180000007E
:400EC000280000000000000000000000C0F1FF0F00366E01C05D0000180000000000E02E000000000000000000000000000000000000000000000000000000000000000023
:400F000000000000000000000000000000000000000000000000000000000000000000000000000000000000000000000000000000000000000000000000000000000000B1
:400F40000000000000000000000000000000000000000000000000000000000000000000000000000000000000000000000000000000000000000000000000000000000071
:400F80000000000000000000000000000000000000000000000000000000000000000000000000000000000000000000000000000000000000000000000000000000000031
:400FC00000000000000000000000000000000000000000000000000000000000000000000000000000000000000000000000000000000000000000000000000000000000F1
:020000040001F9
:0200000490303A
:02000000D143EA
:0200000490402A
:4000000000000000000000000000000000000000000000000000000000000000000000000000000000000000000000000000000000000000000000000000000000000000C0
:400040000000000000000000000000000000000000000000000000000000000000000000000000000000000000000000000000000000000000000000000000000000000080
:0200000490501A
:0C00000000020E34119E00010E38E2E1F7
:0200000490600A
:0100000001FE
:00000001FF