:40000000020B19008F828E83E0540100000070F82278FFE4F6D8FD020BD6C2D530F707B2D563F0FF05F030E70CB2D5F4048463F0FF05F080018430D502F40422BB0106893F
:40004000828A83E0225002E722BBFE02E32289828A83E49322BB010689828A83F0225002F722BBFE01F322EF8DF0A4A8F0CF8CF0A428CE8DF0A42EFE22BC000BBE0029EF64
:400080008DF084FFADF022E4CCF875F008EF2FFFEE33FEEC33FCEE9DEC984005FCEE9DFE0FD5F0E9E4CEFD22EDF8F5F0EE8420D21CFEADF075F008EF2FFFED33FD40079843
:4000C0005006D5F0F222C398FD0FD5F0EA22C5F0F8A3E028F0C5F0F8E582158270021583E038F022BB010A89828A83F0E5F0A3F0225006F709A7F01922BBFE06F3E5F00962
:40010000F31922EF2BFFEE3AFEED39FDEC38FC22E88FF0A4CC8BF0A42CFCE98EF0A42CFC8AF0EDA42CFCEA8EF0A4CDA8F08BF0A42DCC3825F0FDE98FF0A42CCD35F0FCEB85
:400140008EF0A4FEA9F0EB8FF0A4CFC5F02ECD39FEE43CFCEAA42DCE35F0FDE43CFC2275F008758200EF2FFFEE33FECD33CDCC33CCC58233C5829BED9AEC99E58298400C12
:40018000F582EE9BFEED9AFDEC99FC0FD5F0D6E4CEFBE4CDFAE4CCF9A88222B800C1B90059BA002DEC8BF084CFCECDFCE5F0CBF97818EF2FFFEE33FEED33FDEC33FCEB33C7
:4001C000FB10D703994004EB99FB0FD8E5E4F9FA227818EF2FFFEE33FEED33FDEC33FCC933C910D7059BE99A4007EC9BFCE99AF90FD8E0E4C9FAE4CCFB2275F010EF2FFF13
:40020000EE33FEED33FDCC33CCC833C810D7079BEC9AE899400AED9BFDEC9AFCE899F80FD5F0DAE4CDFBE4CCFAE4C8F922EF5BFFEE5AFEED59FDEC58FC22EF4BFFEE4AFE2C
:40024000ED49FDEC48FC22C3E49FFFE49EFEE49DFDE49CFC22EB9FF5F0EA9E42F0E99D42F0EC6480C864809845F022EB9FF5F0EA9E42F0E99D42F0E89C45F022E8600FECCD
:40028000C313FCED13FDEE13FEEF13FFD8F122E8600FEFC333FFEE33FEED33FDEC33FCD8F122BB010789828A830202C25005E9F80206ACBBFE05E9F80206B889828A830203
:4002C00006C4E0FCA3E0FDA3E0FEA3E0FF22E0F8A3E0F9A3E0FAA3E0FB22ECF0A3EDF0A3EEF0A3EFF022A42582F582E5F03583F58322E0FBA3E0FAA3E0F922EBF0A3EAF08A
:40030000A3E9F022D083D082F8E4937012740193700DA3A393F8740193F5828883E4737402936860EFA3A3A380DFE5092582F582E5083583F583B508048582092210AF0669
:40034000858209F50822858209F508D2AF22EC8EF0A4CCC5F0CCCDF8EFA4CEC5F02DFDE43CFCE8A42EC8C5F03DFDE43CFCEFA4FFE5F028FEE43DFDE43CFC22E709F608DFDF
:40038000FA807BE9D39850F3E92FF9E82FF819E718F6DFFA8068E709F208DFFA806080E388828C83E709F0A3DFFA8052E309F608DFFA804AE9D398500EE92FF9E82FF819FD
:4003C000E318F2DFFA8037E309F208DFFA802F88828C83E309F0A3DFFA802389828A83E0A3F608DFFA801789828A83E493A3F208DFF9800A89828A83E0A3F208DFFA0204F3
:400400007980B180F980A580C680DC80F1805F8010808380E98087808780D980E180BC805FD3E998EA9C502FE82FF584EC3BF585E92FF582EA3BF5830582D5820215831560
:4004400082E49305860584D5840215851584F00586DFE5DEE3802288848C8589828A83E493A30586F0A30586DFF5DEF3800B89828A83E493A3F608DFF9ECFAA9F0EDFB2286
:40048000D3E998EA9C502EE82FF584EC3BF585E92FF582EA3BF5830582D5820215831582E005860584D5840215851584F00586DFE6DEE480C488848C8589828A83E0A305F3
:4004C00086F0A30586DFF6DEF480AE80AC88F08E83EF60010E4E60A1ED2402B404005099F582EB2402B4040050E123234582AB832390040173E709F608DFFA8046E709F227
:4005000008DFFA803E88828C83E709F0A3DFFA8032E309F608DFFA806EE309F208DFFA806688828C83E309F0A3DFFA805A89828A83E0A3F608DFFA804E89828A83E0A3F287
:4005400008DFFA804280D280FA80C680D4805580F28029801080A680EA809A80A880DA80E280CA802988848C8589828A83E493A30586F0A30586DFF5DEF3800B89828A8331
:40058000E493A3F608DFF9ECFAA9F0EDFB2288848C8589828A83E0A30586F0A30586DFF6DEF480E389828A83E493A3F208DFF980D688F0EF60010E4E60CD88F0ED2402B46D
:4005C000040050C3F582EB2402B4040050B9232345822390054573E709F60870FA8046E709F20870FA803E88828C83E709F0A370FA8074E309F60870FA806CE309F208705E
:40060000FA806488828C83E309F0A370FA805889828A83E0A3F60870FA804C89828A83E0A3F20870FA804080D280FA80C680D4805180F28027801080A680EA809A80A88042
:40064000DA80E280CA802788848C8589828A83E493A30586F0A3058670F5800B89828A83E493A3F60870F9ECFAA9F0EDFB2288848C8589828A83E0A30586F0A3058670F67C
:4006800080E589828A83E493A3F20870F980D888F0ED2402B4040050CEF582EB2402B4040050C4232345822390062773E6FC08E6FD08E6FE08E6FF22E2FC08E2FD08E2FE5E
:4006C00008E2FF22E493FC740193FD740293FE740393FF22900000E0FFEF701E12158B90000CEFF012158B900027EFF012158B900001EFF09000007401F090008CE4F0A33A
:40070000E4F07B007A007D017F011212DC90000AEFF090000CE0FF90000CE0FB90008C7401F07D047C00120F1B90000CE0FF7B017A007928AC02AD017B777A65121060907C
:40074000000AE0FF90000CE0FD12166B90000AE0FF7D0412153C90000AE0FF7D0112148390000AE0FF7D0112148390008CE4F0A3E4F07B007A007D017F0112127190000B5D
:40078000EFF0900027E0FF900027E0FB90008C7401F07D047C00120F1B900027E0FF7B017A007930AC02AD017B737A6412106090000BE0FF900027E0FD12166B90000BE07D
:4007C000FF7D0412153C90000BE0FF7D0112148390000BE0FF7D0112148390008CE4F0A3E4F07B007A007D017F011213B1900038EFF0900001E0FF900001E0FB90008C7491
:4008000001F07D047C00120F1B900001E0FF7B017A007902AC02AD017B227A64121060900038E0FF900001E0FD12166B900038E0FF7D0412153C900038E0FF7D0112148353
:40084000900038E0FF7D011214831217B12290008DEFF090008EEDF090008DE0FFC3EF648094E1403990008DE0FFD3EF648094FA502C90008DE0FFEF3395E0FE74AC2FF5B6
:400880008274FF3EF583E0FF90008EE0FEEE5403FE74282EF582E43400F583EFF02290008DE0FFC3EF648094C1403990008DE0FFD3EF648094DA502C90008DE0FFEF3395FE
:4008C000E0FE74CC2FF58274FF3EF583E0FF90008EE0FEEE5403FE74282EF582E43400F583EFF02290008DE0FFC3EF648094B0403990008DE0FFD3EF648094B9502C9000D1
:400900008DE0FFEF3395E0FE74092FF58274003EF583E0FF90008EE0FEEE5403FE74282EF582E43400F583EFF02290008DE0FFEFB42D1790008EE0FFEF5403FF74282FF594
:4009400082E43400F5837440F02290008DE0FFEFB42E1790008EE0FFEF5403FF74282FF582E43400F5837480F02290008DE0FFEFB43D1790008EE0FFEF5403FF74282FF5AC
:4009800082E43400F5837448F02290008DE0FFEFB45F1790008EE0FFEF5403FF74282FF582E43400F5837408F02290008EE0FFEF5403FF74282FF582E43400F583E4F02296
:4009C0007B007A4679E812185CEF4405FD7B007A4679E8121868120D787B007A7679007D047C001216DF7B007A7679087D047C001216DF7B007A7679107D047C001216DF0B
:400A00007B017A50790312185CEF4402FD7B017A5079031218687B017A50791312185CEF4402FD7B017A5079131218689043A0E0FFEF4440FF9043A0EFF09043C2E0FFEF81
:400A40004410FF9043C2EFF07B087A0979E0C003C002C0017B007A5179029000871202FBD001D002D0037F087E0012173B7B087A0979E8C003C002C0017B007A5179329016
:400A800000871202FBD001D002D0037F087E0012173B7B087A0979F0C003C002C0017B007A5179609000871202FBD001D002D0037F0A7E0012173B904322E0FFEF4408FFD8
:400AC000EFF09046ECE0FFEFC394055006904689743AF090480074F1F0120C6590480074B1F01216A97B007A4379A0C003C002C0017B007A4379B09000871202FBD001D0AB
:400B000002D0037F0E7E0012173B9043B0E0FFEF54FDFF9043B0EFF02275930078007583467582E8E04401F0009046ECE0F99046FAE0FAB903225420B40012B8001AEA90F1
:400B40001FFFF07401901FFEF09046F6F0901FFEE06005901FFFE0FA90480074C0F07581099076BCE4F0A3F0A3F0A3F0907010F0907019F0907020F09076007410F090763C
:400B800004E4F0A3F0A3F0A3F09078007800087400F0A37408F0E8B8040274FFA3F0A37422F0A374BCF0A37476F0A3E4F0A3E81475F008A4F0A3B804D59070107401F09044
:400BC0007014F07E707F18120004907010F0EA9000B2F00200117508207509001209C01215DA020C20021187E493A3F8E493A34003F68001F208DFF48029E493A3F854072F
:400C0000240CC8C333C4540F4420C8834004F456800146F6DFE4800B01020408102040809010F7E47E019360BCA3FF543F30E509541FFEE493A360010ECF54C025E060A872
:400C400040B8E493A3FAE493A3F8E493A3C8C582C8CAC583CAF0A3C8C582C8CAC583CADFE9DEE780BE7E007F82900086EEF0A3EFF07B007A4079807F0B7E007D197C001229
:400C800017EE7B007A4079847F6F7E177D197C001217EE9043007402F09040007408F09042007403F07B0C7A01790812185C9046A1EFF07B007A4279227D087C0012184106
:400CC0007B007A4279207D517C10121841900088E4F07F197E007D007C009000821202DA900086E0FEA3E0FF8F828E831202C2EC4D4E4F604E900088E0FFEF6403604490F1
:400D00004225E0FFEF5401FF7E00900088E0FEEE25E0FEEE4FFFEF5403FF900088EFF07FE07E017D007C001217009000821202C27BFF7AFF79FF78FF120103900082120247
:400D4000DA809D7B007A4079047D007C011218419040047407F0904006E4F09040087448F0904004E4F09040017402F09043A2E0FFEF4403FFEFF0227F007E007D007C0099
:400D80009000C21202DA9076007410F09070107401F0907019E4F09078027401F090780374A3F07B027A7879007D787C011218437B027A787904C003C002C0017BFF7A1E8B
:400DC0007967AC02AD01D001D002D0031218437B027A7879067D087C781218437B027A7679047D107C001218437B027A7679067D007C001218439070297409F0907039740B
:400E00000DF09070697417F0907079741BF09070147401F0907018E0FFEF20E0F7907028E0FFEF20E0F7907038E0FFEF20E0F7907068E0FFEF20E0F7907078E0FFEF20E026
:400E4000F77B087A007900C003C002C0017B017A5179109000871202FBD001D002D0037F067E0012173B2290008EEFF090008FEDF0900090EBF090008EE0FFEFC39418403B
:400E800003020F0F900090E0FFEF5401FFEFC43333335480FF90008FE0FEEE547FFEEF4EFF90008EE0FE75F008EE9076001202E6EFF0900092E0FFEF540FFFEFC454F0FF38
:400EC000900091E0FEEE540FFEEF4EFF90008EE0FE75F008EE9076011202E6EFF0900093E0FFEF540FFF90008EE0FE75F008EE9076021202E6EFF090008EE0FF75F008EF4D
:400F00009076031202E6E4F0900094E4F080069000947401F0900094E0FF22900088EFF0900089ECF0A3EDF090008BEBF0900088E0FFEFC394804003020FBD900089E0FE87
:400F4000A3E0FFEE54F0FE7F00EF4E7070900088E0FF7E08EF8EF0A4FFAEF0EF2400FFEE3478FEAA06A9077B0190008E1202FB90008E1202F2AE02AF01AA06A9077B019055
:400F80000089E0FCA3E0FD12184390008BE0FF900088E0FE75F008EE9078021202E6EFF090008CE0FF900088E0FE75F008EE9078031202E6EFF090008DE4F0800690008DED
:400FC0007401F090008DE0FF2290008EEFF090008FECF0A3EDF0900091EAF0A3EBF090008EE0FFEFC39418506B90008EE0FF7E08EF8EF0A4FFAEF0EF2404FFEE3476FEAAE0
:4010000006A9077B019000941202FB9000941202F2AE02AF01AA06A9077B0190008FE0FCA3E0FD12184390008EE0FF7E08EF8EF0A4FFAEF0EF2406FFEE3476FEAA06A907BE
:401040007B01900091E0FCA3E0FD121843900093E4F080069000937401F0900093E0FF22900088EFF0900089ECF0A3EDF090008BEAF0A3EBF0900088E0FFEFC39480506B8A
:40108000900088E0FF7E08EF8EF0A4FFAEF0EF2404FFEE3478FEAA06A9077B0190008E1202FB90008E1202F2AE02AF01AA06A9077B01900089E0FCA3E0FD121843900088F4
:4010C000E0FF7E08EF8EF0A4FFAEF0EF2406FFEE3478FEAA06A9077B0190008BE0FCA3E0FD12184390008DE4F0800690008D7401F090008DE0FF225000393F065B4F666D0B
:401100007D077F6F777C395E79715A000D777C585E79713D74101E763855545C7367506D781C1C1D766E5B4800280000000000000000480030010204081020408048000269
:40114000FFFFFFFFFFFFFFFF410000004400AE016E36004400A900005DC04100AD184400B32EE000004100C6004100C7FF4100C8FF4100C9FF4400B7000000074300BD0069
:4011800000004100A70000900087E4F01206D4900087E0FFEF75F0CA12001AAFF0900087EFF0900087E0FFEF3395E0FE74742FF974183EFA7BFFC003C002C0017B017A0086
:4011C0007982A801AC02AD03D001D002D0037E007F041204CD900086E4F012176F7B017A0079827D001213471217DBEFD3940050F77F5E7E017D007C00121205900087E021
:4012000004F0808B2290FFFC12032A1202DA7F007E807D007C008508838509821202CED312026B40309000B31202C2121700850883850982C083C0821202C2C3EF9400FF99
:40124000EE9480FEED9400FDEC9400FCD082D0831202DA80B99000A91202C28508838509821202CE12011012170090000412032A22900088EFF0900089EDF090008AEAF075
:40128000A3EBF09000C87401F09000C8E0FFEF64FF60439000C8E0FF900088E0FD900089E0FB900091E4F0900092E4F0900093E4F0120E679000C8E0FF90008AE0FCA3E08E
:4012C000FD90008CE0FAA3E0FB120FC99000C8E0FF7D0212141B9000C8E0FF22900088EFF0900089EDF090008AEAF0A3EBF09000C97402F09000C9E0FFEF64FF6043900068
:40130000C9E0FF900088E0FD900089E0FB900091E4F0900092E4F0900093E4F0120E679000C9E0FF90008AE0FCA3E0FD90008CE0FAA3E0FB120FC99000C9E0FF7D021214CA
:401340001B9000C9E0FF229000881202FB90008BEDF090008CE4F09000881202F290008CE0FFE92FF9E43AFA12003CFFEF604190008BE0FFC374049FFF90008CE0FEEEC34C
:401380009F502D9000881202F290008CE0FFE92FF9E43AFA12003CFF90008CE0FE90008BE0FDED2EFD12084E90008CE004F080A722900088EFF0900089EDF090008AEAF0F6
:4013C000A3EBF09000C7E4F09000C7E0FFEF64FF60439000C7E0FF900088E0FD900089E0FB900091E4F0900092E4F0900093E4F0120E679000C7E0FF90008AE0FCA3E0FDE5
:4014000090008CE0FAA3E0FB120FC99000C7E0FF7D0212141B9000C7E0FF2290008EEFF090008FEDF090008EE0FFEFC39418504790008EE0FF75F010EF9070101202E6E0CA
:40144000FFEF54F1FF900090EFF090008FE0FFEF5407FFEF25E0FF900090E0FEEF4EFF90008EE0FE75F010EE9070101202E6EFF0900091E4F080069000917401F09000915D
:40148000E0FF22900088EFF0900089EDF0900088E0FFEFC39418503E900088E0FF75F010EF9070101202E6E0FFEF54DFFF900089E0FEEE60047E2180027E01EF4EFF900041
:4014C00088E0FE75F010EE9070101202E6EFF090008AE4F0800690008A7401F090008AE0FF22906472E0FFEF54C0FF900088EFF0900088E0FFEF4409FF906472EFF0906483
:4015000092E0FFEF4401FFEFF07FFF1218217FFF1218117F7F121831906482E4F01217C6900089EFF0906492E0FFEF4410FFEFF0900089E0FF12179912180022900088EF89
:40154000F0900089EDF0900088E0FFEFC39418502E900088E0FF75F010EF9070141202E6C083C082E0FF900089E0FEEE5407FEEF4EFFD082D083EFF090008AE4F0800690E3
:40158000008A7401F090008AE0FF221217C6900088EFF09000BCE0FFEFD3941840289000BBE0FF900089EFF09000BCE014F0900089E0FF75F008EF9078001202E6E0FF9023
:4015C00000BBEFF0800690008974FFF0900088E0FF121799900089E0FF229000BB747FF09000BC7480F0900082747FF0900082E0FFEF6021900082E0FFEF14FF900082E0E3
:40160000FE75F008EE9078001202E6EFF0900082E014F080D7900082E0FF75F008EF9078001202E6E4F022C2D5E830E70FB2D5E4C39BFBE49AFAE499F9E498F8EC30E717F9
:40164000B2D512165D12019BE4C39BFBE49AFAE499F9E498F8800312019B30D50DE4C39FFFE49EFEE49DFDE49CFC22900088EFF0900089EDF0900088E0FFEFC39418501D3E
:40168000900089E0FF900088E0FE75F010EE9070191202E6EFF090008AE4F0800690008A7401F090008AE0FF227B0C7A0179CF12185C900082EFF0900082E0FFEF5407FFDE
:4016C00090586EEFF0900082E0FFEFC4540FFFEF540FFF90586FEFF09058767444F022EC4D6011ED60010C8B938A838982E4F0A3DDFCDCFA75930022000000000000000076
:40170000EC4D4E700D78FCEF24E950032840FD2200007BF178DA0000EF28FF78FFEE38FEED38FDEC38FC50E7EF2BFFEE38FEED38FDEC38FC40F22205020304758600EF4E5A
:401740006027EF60010E759300900087E0F595A3E0F585A3E0F5848B938A838982E0A30586F0A31586DFF6DEF4E4F593F59522900088E4F0900088E0FFEFC39404501990AB
:401780000088E0FF74282FF582E43400F583E4F0900088E004F080DC22EF54016004D2AF8002C2AFEF5402FF9044F4E054FD4FF0229000C6E0FFEF70091214E29000C67489
:4017C00001F0121850229044F4E0F84402F0E85402FF10AF012274014FFF22905161E0FFEF5402FF7E00EEC313FEEF13FF228B938A838982EFF0A3EEF0A3EDF0759300227A
:40180000906462E0FFEF30E407906452E0FF80F02290008AEFF090008AE0FF906402EFF02290008AEFF090008AE0FF906442EFF02290008AEFF090008AE0FF906422EFF0B9
:40184000228B938A838982EDF0A3ECF075930022906472E0FFEF4480FFEFF0228B938A838982E0759300FF228B938A838982EDF0759300222E2020202020466F7572207319
:40188000636F726520616E6420736576656E2079656172732061676F206F757220666174686572732062726F7567687420666F727468206F6E207468697320636F6E74695D
:4018C0006E656E742C2061206E6577206E6174696F6E2C20636F6E63656976656420696E204C6962657274792C20616E642064656469636174656420746F2074686520705B
:40190000726F706F736974696F6E207468617420616C6C206D656E20617265206372656174656420657175616C2E20204E6F772077652061726520656E67616765642069D5
:401940006E206120677265617420636976696C207761722C2074657374696E6720776865746865722074686174206E6174696F6E2C206F7220616E79206E6174696F6E206B
:40198000736F20636F6E63656976656420616E6420736F206465646963617465642C2063616E206C6F6E6720656E647572652E20576520617265206D6574206F6E20612012
:4019C000677265617420626174746C652D6669656C64206F662074686174207761722E205765206861766520636F6D6520746F206465646963617465206120706F72746920
:401A00006F6E206F662074686174206669656C642C20617320612066696E616C2072657374696E6720706C61636520666F722074686F73652077686F20686572652067610F
:401A40007665207468656972206C6976657320746861742074686174206E6174696F6E206D69676874206C6976652E20497420697320616C746F67657468657220666974FF
:401A800074696E6720616E642070726F70657220746861742077652073686F756C6420646F20746869732E204275742C20696E2061206C61726765722073656E73652C20DE
:401AC00077652063616E206E6F74206465646963617465202D2D2077652063616E206E6F7420636F6E73656372617465202D2D2077652063616E206E6F742068616C6C6F0B
:401B000077202D2D20746869732067726F756E642E20546865206272617665206D656E2C206C6976696E6720616E6420646561642C2077686F207374727567676C656420AD
:401B4000686572652C206861766520636F6E73656372617465642069742C206661722061626F7665206F757220706F6F7220706F77657220746F20616464206F722064659E
:401B800074726163742E2054686520776F726C642077696C6C206C6974746C65206E6F74652C206E6F72206C6F6E672072656D656D626572207768617420776520736179DD
:401BC00020686572652C206275742069742063616E206E6576657220666F72676574207768617420746865792064696420686572652E20497420697320666F7220757320FB
:401C0000746865206C6976696E672C207261746865722C20746F20626520646564696361746564206865726520746F2074686520756E66696E697368656420776F726B20A3
:401C4000776869636820746865792077686F20666F756768742068657265206861766520746875732066617220736F206E6F626C7920616476616E6365642E204974206967
:401C8000732072617468657220666F7220757320746F20626520686572652064656469636174656420746F20746865206772656174207461736B2072656D61696E696E67F3
:401CC000206265666F7265207573202D2D20746861742066726F6D20746865736520686F6E6F72656420646561642077652074616B6520696E637265617365642064657646
:401D00006F74696F6E20746F207468617420636175736520666F722077686963682074686579206761766520746865206C6173742066756C6C206D656173757265206F662F
:401D4000206465766F74696F6E202D2D2074686174207765206865726520686967686C79207265736F6C766520746861742074686573652064656164207368616C6C206E91
:401D80006F742068617665206469656420696E207661696E202D2D20746861742074686973206E6174696F6E2C20756E64657220476F642C207368616C6C2068617665204D
:401DC00061206E6577206269727468206F662066726565646F6D202D2D20616E64207468617420676F7665726E6D656E74206F66207468652070656F706C652C20627920A3
:401E00007468652070656F706C652C20666F72207468652070656F706C652C207368616C6C206E6F74207065726973682066726F6D207468652065617274682E2020202090
:401E4000200001000000000000000100000000000100010000000800000001000000080001000100000001000823021E427608000823031E4A7610000823041E52762800C6
:401E80000823051E5A7630000523061E627020000523071E627030000523081E627060000523FE1E6270700020220A00C251100020220B00C251400010220C00C251C00021
:401EC0001022FE00C251F00200220E00C200000180220F00C204000A00221000C206000180221100C214000080221200C216000400221300C218000080221400C24200005C
:401F000080221500C243000400221600C24400020022FE00C24C00000723180008520000072319001052180007231A00185230002023FE01A064700080231C0020020000A5
:401F400080231D00A002800080231E012016800080231F01C0158000802320024017000080232102C0178000802322034005800080232303C003000080232404400380000F
:401F800080232504C0490000802326054049800080232705C0480000802328064048800080232906C043800080232A074042800080232B07C041000080232C0840418000EC
:401FC00080232D08C040000080232E094040800010232F09C05010001023FE09D050000000000000000000000000000000000000000000000000000000000000000000004A
:4020000000000000000000000000000000000000000000000000000000000000000000000000000000000000000000000000000000000000000000000000000000000000A0
:402040000000000000000000000000000000000000000000000000000000000000000000000000000000000000000000000000000000000000000000000000000000000060
:402080000000000000000000000000000000000000000000000000000000000000000000000000000000000000000000000000000000000000000000000000000000000020
:4020C00000000000000000000000000000000000000000000000000000000000000000000000000000000000000000000000000000000000000000000000000000000000E0
:0200000480007A
:400000002A000000000000000503000000000000AA990000000000000000000002000000000001010000000000000000000000000000000004000000000000000000000043
:4000400000000000000007000000000000000000040102000000010000000000000000001005000000D012000EFFFFFF00A0000418008000250000000404040400000001FD
:400080004000C0004040C000C000C000C000C000000000000000000000000000000000000000000000000000000000000000000000010000000000000000000000000F00F0
:4000C000000001000000080000000400000002000100020008010400AA020000000055100000000000000000000000000000000000000F0000001000040400040090000114
:4001000000000000000000000000000000000000000000000000000000000000000000000000000000000000000000000000000000000000000000000000000000000000BF
:400140000000000000000000000000000000000000000000000000000000000000000000000000000000000000000000000000000000FF00000010000000000400900001DB
:4001800000000000000000000000000000000000000000000000000000000000000000000000000000000000000000000000000000002D0000000000000000000000000012
:4001C000020000020400010000000400000000000000090000000000000000020000000006000000000000000400000000000000000000000000400000000000000000009D
:4002000000000000000000000000000000000000000000000000000000000000000000000000800000000000000000000000400000000000000000000000000000000000FE
:40024000000000000000000000000000000000000000000000000000000000000000000000000000000000000000000000000000000000000000000000000000000000007E
:4002800000000000000000000000000000000000000000000000000000000000000000000000000000000000040049000000000006000006000000000000000000000000E5
:4002C00000000000000000040000000000000000000000000000000000000000000000000000000000000000000000000000000000000000000000000000000000000000FA
:4003000000000000000000000000000000000000000000000000000000000000000000000000000000000000000000000000000000000000000000000000000000000000BD
:4003400000000000000000000000000000000000000000000000000000000000000000000000000000000000000110000000000000000480000000000000000000000000E8
:40038000000000000000000000000000000000000000000000000000000000000000000000000000000000000000800000002000000000000000000000000000000000009D
:4003C00000000000000080000080000000002000AA000000000020000001148000806000000200040000004000000000000000000002000000000000000000000200000054
:4004000000000000000000400000000000000081000000000000204000000000000040090000000000000004AA000000000000000000000001008000000000000000000023
:400440000000004800000000000000000000000000000000000000000000000000000000000000000000000000000000000000000000000000000000000000000000000034
:40048000100021002F0000000000000001008000100010000000D000200000000000000000000000000000000000000000000000000000000000000000000000000000004B
:4004C00000000000000000000000000000000000000000000000000000000000000000000000000000000000000000000000000000000000000000000000000000000000FC
:4005000000000000000000000000000000000000020000800000000A020000000000000010000000000180000000000000000000000000000000000000000000000000009C
:40054000100100000000000A000000800000000000000000000000000200800000000000020000000000000002000000000004010000000002000000000000000000000053
:400580000000000000000000000000000000000000000000E000E000C000000000000000000030000000C0000000000000008000000000000000000000000000000000004B
:4005C00000000000000000000000000000000000000000000000000000000000000000000004044000000000000000000000000000000000000000000000000000000000B3
:4006000000000000000000000000000000000000000000000000000000000000000000000000000000000000000000000000000000000000000000000000000000000000BA
:4006400000000000000080000000000000000000000000000008004000000000000000000000000000000001000000000000000000000000000000000000000000000000B1
:4006800000000000000000004000000000000000000000000000000000000000000000000000400000000000000000000000000000000000000000000000000000000000BA
:4006C00000000000000000000000000000000000000000000008004000000000000000000000000000000001000000000000000000000000000000000000000000000000B1
:4007000000000000000000000000000000000000000000000000000000000000000000000000000000000000000000000000000000000000000000000000000000000000B9
:4007400000000000000000000000000000000000000000000008004000000000000000000000000000000001100000200000000040001000000000000000000000000000B0
:40078000000000000000000000000000000000000000000000000000000000000000000000000000000000000000A000000000000000000000000000000000000000000099
:4007C00000000000000000000000000000000000000000000000000000000000000000000000000000000000000000000000000000000000000000000000000000000000F9
:400800000000000000000000000000000000000010000000000010004000000000000020000000000000000000000000000000000000000000000000000000000000000038
:40084000000000000000000000000000000000000000000000080040000000000000000000000000000000010000000000000000000000000000000000000000000000002F
:400880000000000000000000000000000000000000000000E00020000000000000000000000000000000000000000000000000000000000000000000000000000000000038
:4008C00000000000000000000000000000000000000000000000000000000000000000000000000000000000000000000000000000000000000000000008000000000042AE
:4009000000000000000000000000000000000000000000000000000000000000000000000000000000000000000000000000000000000000000000000000000000000000B7
:400940000000000000000000000000000000000000000000000000000000000000000000000000000000000000000000000000000000000000000000000000000000000077
:400980000000000000000000000000000000E00000000000000000000000000000000000000000000000000000000000000000000000000000000000000000000000000057
:4009C0000001000000000000000000010000000001010000000000000101000000000000000F0F000F00000000FFFF00FF00000002000202020000000000000000000000BF
:400A000000000000000000000000000000000000000000000000000000000000000000000000000000000000000000000000000000000000000000000000000000000000B6
:400A40000000000000000000000000000000000000000000000000000000000000000000000000000000000000000000000000000000000000000000000000000000000076
:400A80000000000000000000000000000000000000000000000000000000000000000000000000000000000000000000000000000000000000000000000000000000000036
:400AC00000000000000000000000000000000000000000000000000000000000000000000000000000000000000000000000000000000000000000000000000000000000F6
:0200000490006A
:0400000000000005F7
:0200000490105A
:04000000AFAC90BC55
:0200000490303A
:02000000357554
:0200000490501A
:0C00000000011E02806903011E11B5DE24
:0200000490402A
:4000000000000000000000000000000000000000000000000000000000000000000000000000000000000000000000000000000000000000000000000000000000000000C0
:00000001FF
